:040000000C94330029
:100004000C9400000C9400000C9400000C9400006C
:100014000C9400000C9400000C9400000C9400005C
:100024000C94B8000C9400000C946A000C9400002A
:100034000C9400000C9400000C9400000C9400003C
:100044000C9400000C9400000C9400000C9400002C
:100054001027E80364000A000100001000011000EA
:100064000100F894EE27ECBBF1E0FBBFEBBFE5BF6A
:10007400F8E1F1BDE1BD8DE0A2E0BB27ED938A95E7
:10008400E9F780E094E0A0E6ED930197E9F7EFE566
:10009400EDBFE4E0EEBFC0E6D1E00C94D500E7B3D9
:1000A400E06BE7BBBE98C49AE1E5EDB90895E88139
:1000B400EFB9779BFECF0AC0E881EFB9779BFECFFB
:1000C400EFB104C05D9BFECFE881ECB921960895A1
:1000D4000A921A92FA926A937A938A939A93AA93B7
:1000E400BA93EA93FA93EFB7EA931A931CB11133D4
:1000F40021F4C298E1E30E945001123321F4C29822
:10010400E2E30E945001133321F4C298E3E30E9416
:100114005001143321F4C298E4E30E9450011533D2
:1001240021F4C398E5E30E945501163321F4C398E2
:10013400E6E30E945501173321F4C398E7E30E94D4
:100144005501183321F4C398E8E30E94550119912D
:10015400E991EFBFF991E991B991A99199918991A7
:1001640079916991F9901990099018956A937A9305
:10017400AA93BA93EA93FA93EFB7EA93E2E8E2BF59
:10018400A4E6B1E00E949001EF5FFF4F6F4F7F4FF5
:100194000E949501E991EFBFF991E991B991A99173
:1001A400799169911895E0E0EBBBEABBECE0E8BB20
:1001B400ECEBE7BBE0E0E5BBEFEFE4BBE0E0E2BB88
:1001C400E1BBE3E0E3BFE2E8E2BFE9B7E160E9BF36
:1001D400E0E0ECBFEFBDEEBDEDBDECBDE7BDE6BDBF
:1001E400EBBDEABDE9BDE8BDE2BDE5BDE4BDE3BDEF
:1001F400E1E0E9BFE0E0EBB9E8E9EAB9E6E8E0BD4F
:10020400E0E0E0BDE3E3E9B9E1EDEDB9E0E0EEB94A
:1002140046DFEEB1EFB1E0E0E6BF7894A09164016F
:10022400B09165018091660190916701A43FE1E07E
:10023400BE07E0E08E07E0E09E0771F5C39AC2981E
:10024400E0E0EA9339DFFF2766277727E093600130
:10025400F093610160936201709363010E945A01FB
:100264000E9467015E2E0E945A010E948C014E2E4C
:10027400E52DE05DEA9326DFE42DE05DEA9322DFDD
:10028400E0E2EA931FDFE0E0E0936401E0936501BC
:10029400E0936601E0936701C1CFFFCFEA930E9428
:1002A4005900C29A0895EA930E945900C39A089586
:1002B400A0916001B091610180916201909163010C
:1002C400EAE0F0E060E070E008953F934F935F93BD
:1002D400002411244427552730E2AA0FBB1F881F8E
:1002E400991F001C111C441F551F0E1A1F0A460B90
:1002F400570B28F40E0E1F1E461F571F01C0A16086
:100304003A9559F7FD01BC01D001CA015F914F91A3
:100314003F910895DADFFD01BC010895ED91FD914F
:100324006D917D9108957E936E93FE93EE9308955F
:00000001FF
