:080000000C9433000C94000085
:100008000C9400000C9400000C9400000C94000068
:100018000C9400000C9400000C9400000C94B800A0
:100028000C9400000C946A000C9400000C940000DE
:100038000C9400000C9400000C9400000C94000038
:100048000C9400000C9400000C9400001027E803A6
:1000580064000A0001000010000110000100F8947B
:10006800EE27ECBBF1E0FBBFEBBFE5BF8DE0A2E004
:10007800BB27ED938A95E9F780E094E0A0E6ED933D
:100088000197E9F7EFE5EDBFE4E0EEBFC0E6D1E0A8
:100098000C94D500E7B3E06BE7BBBE98C49AE1E5E2
:1000A800EDB90895AA93E881EFB9779BFECF0CC00C
:1000B800AA93E881EFB9779BFECFEFB105C0AA9369
:1000C8005D9BFECFE881ECB9219608950A921A92B9
:1000D800FA926A937A938A939A93AA93BA93EA9331
:1000E800FA93EFB7EA931A931CB1113321F4C2982B
:1000F800A1E3D8DFC29A123321F4C298A2E3D2DF77
:10010800C29A133321F4C298A3E3CCDFC29A143302
:1001180021F4C298A4E3C6DFC29A153321F4C39828
:10012800A5E3C0DFC39A163321F4C398A6E3BADF68
:10013800C39A173321F4C398A7E3B4DFC39A1833DB
:1001480021F4C398A8E3AEDFC39A1991E991EFBFF0
:10015800F991E991B991A9919991899179916991C7
:10016800F9901990099018956A937A93AA93BA937B
:10017800EA93FA93EFB7EA93E2E8E2BFA4E6B1E0C4
:100188000E948201EF5FFF4F6F4F7F4F0E948701F0
:10019800E991EFBFF991E991B991A99179916991A3
:1001A8001895E0E0EBBBEABBECE0E8BBECEBE7BBA7
:1001B800E0E0E5BBEFEFE4BBE0E0E2BBE1BBE3E09E
:1001C800E3BFE2E8E2BFE9B7E160E9BFE0E0ECBF26
:1001D800EFBDEEBDEDBDECBDE7BDE6BDEBBDEABDD7
:1001E800E9BDE8BDE2BDE5BDE4BDE3BDE1E0E9BFD1
:1001F800E0E0EBB9E8E9EAB9E6E8E0BDE0E0E0BD57
:10020800E3E3E9B9E1EDEDB9E0E0EEB943DFEEB1E2
:10021800EFB1E0E0E6BF7894A0916401B091650188
:100228008091660190916701A43FE1E0BE07E0E09C
:100238008E07E0E09E0751F5C39AC298A0E038DF28
:10024800FF2766277727E0936001F09361016093A9
:100258006201709363010E944C010E9459015E2E55
:100268000E944C010E947E014E2EA52DA05D27DF25
:10027800A42DA05D24DFA0E222DFE0E0E09364018A
:10028800E0936501E0936601E0936701C5CFFFCF76
:10029800A0916001B0916101809162019091630128
:1002A800EAE0F0E060E070E008953F934F935F93D9
:1002B800002411244427552730E2AA0FBB1F881FAA
:1002C800991F001C111C441F551F0E1A1F0A460BAC
:1002D800570B28F40E0E1F1E461F571F01C0A160A2
:1002E8003A9559F7FD01BC01D001CA015F914F91C0
:1002F8003F910895DADFFD01BC010895ED91FD916C
:100308006D917D9108957E936E93FE93EE9308957B
:00000001FF
