:100000000C942F000C9400000C9400000C94000041
:100010000C9400000C9400000C9400000C94000060
:100020000C9400000C9400000C9460000C940000F0
:100030000C9400000C9400000C9400000C94000040
:100040000C9400000C9400000C9400000C94000030
:100050000C94000000000100050054000000F8941A
:10006000EE27ECBBF1E0FBBFEBBFE5BF8DE0A2E00C
:10007000BB27ED938A95E9F780E094E0A0E6ED9345
:100080000197E9F7E6E5F0E085919591009761F039
:10009000A591B59105901590BF01F00105900D92C5
:1000A0000197E1F7FB01F0CFEFE5EDBFE4E0EEBF34
:1000B000C0E6D1E00C948E00779BFECFEFB108959F
:1000C0000A921A92FA926A937A938A939A93AA93CB
:1000D000BA93EA93FA93EFB7EA931A93EDDF1E2FE0
:1000E000153311F4A89A0BC0163311F4A89807C061
:1000F000173311F4A99A03C0183309F4A998199178
:10010000E991EFBFF991E991B991A99199918991FB
:1001100079916991F990199009901895E4E0E8BBFC
:10012000E0E4E7BBE0E0E5BBEFEFE4BBE0E0EBB928
:10013000E8E9EAB9E6E8E0BDE0E0E0BDE3E3E9B91B
:10014000E0ECEDB9E0E0EEB9E7B3EF74E7BBBE9ADF
:10015000C49AEEB1EFB1E0E0E6BF7894FFCFFFCFF5
:00000001FF
