:0A0000000C942A000C9400000C94EC
:10000A0000000C9400000C9400000C9400000C9466
:10001A0000000C9400000C9400000C9400000C9456
:10002A005A000C9400000C9400000C9400000C94EC
:10003A0000000C9400000C9400000C9400000C9436
:10004A0000000C9400000C940000F894EE27ECBB1E
:10005A00F1E0FBBFEBBFE5BF8DE0A2E0BB27ED936C
:10006A008A95E9F780E094E0A0E6ED930197E9F735
:10007A00EFE5EDBFE4E0EEBFC0E6D1E00C948A0004
:10008A00AA93E881E7B98BE18A95F1F7369A349B0E
:10009A00FECF349AE4B1F5B106C0AA93E881EFB96C
:1000AA00779BFECFEFB1219608950A921A92FA929F
:1000BA006A937A938A939A93AA93BA93EA93FA934E
:1000CA00EFB7EA931A93A0916801E7DF1E2F113365
:1000DA0011F4A89A0BC0123311F4A89807C013336D
:1000EA0011F4A99A03C0143309F4A9981991E99152
:1000FA00EFBFF991E991B991A99199918991799172
:10010A006991F990199009901895E0E0E8BBE0E44C
:10011A00E7BBE0E0E5BBEFEFE4BBE0E0EBB9E8E921
:10012A00EAB9E6E8E0BDE0E0E0BDE3E3E9B9E0E032
:10013A00E7B9E3E8E6B9E0E0E0BFE0ECEDB9E0E01A
:10014A00EEB9E7B3EF74E7BBBE9AC49AEEB1EFB16A
:10015A00E0E0E6BF7894A0E093DF66277727E09394
:10016A006001F09361016093620170936301A8E8F2
:10017A00B3E180E090E00E94F800DF01CB01EFEFED
:10018A00F3E060E070E00E941801E0936401F093EC
:10019A0065016093660170936701A0916401B09153
:1001AA0065018091660190916701EAE0F0E060E004
:1001BA0070E00E941801E0936801F093690160936E
:1001CA006A0170936B01A1E0B0E00E94EE00C3CF18
:1001DA00FFCF109639F080ED97E00197F1F7A895D7
:1001EA001197C9F708957A9F702D6B9F700DF89F2C
:1001FA00700DE99F700D6A9F602D710DFB9F600D58
:10020A00711DE89F600D711D8827FA9FF02D610D01
:10021A00781FEB9FF00D611D781FEA9FE02DF10D0D
:10022A00681F781F08953F934F935F93002411240A
:10023A004427552730E2AA0FBB1F881F991F001CAD
:10024A00111C441F551F0E1A1F0A460B570B28F480
:10025A000E0E1F1E461F571F01C0A1603A9559F77F
:10026A00FD01BC01D001CA015F914F913F910895F0
:00000001FF
